:100000000C9474030C949C030C949C030C949C031C
:100010000C949C030C949C030C949C030C949C03E4
:100020000C949C030C949C030C94C4070C94360809
:100030000C949C030C949C030C949C030C949C03C4
:100040000C949C030C949C030C949C030C949C03B4
:100050000C949C030C949C030C949C030C94AD0591
:100060000C949C030C949C030C949C030C949C0394
:100070000C949C030C949C030C949C030C949C0384
:100080000C949C030C949C030C949C030C949C0374
:100090000C949C030C949C030C949C030C949C0364
:1000A0000C949C030C949C030C949C030102040884
:1000B0001020408000000000003E5B4F5B3E3E6B26
:1000C0004F6B3E1C3E7C3E1C183C7E3C181C577DF2
:1000D000571C1C5E7F5E1C00183C1800FFE7C3E73E
:1000E000FF0018241800FFE7DBE7FF30483A060E50
:1000F0002629792926407F050507407F05253F5A97
:100100003CE73C5A7F3E1C1C08081C1C3E7F142206
:100110007F22145F5F005F5F06097F017F006689B1
:10012000956A606060606094A2FFA29408047E04F7
:100130000810207E201008082A1C08081C2A08081D
:100140001E101010100C1E0C1E0C30383E383006DD
:100150000E3E0E06000000000000005F00000007D9
:10016000000700147F147F14242A7F2A1223130807
:10017000646236495620500008070300001C2241E3
:10018000000041221C002A1C7F1C2A08083E080887
:100190000080703000080808080800006060002037
:1001A000100804023E5149453E00427F400072491A
:1001B0004949462141494D331814127F10274545BE
:1001C00045393C4A494931412111090736494949D4
:1001D00036464949291E0000140000004034000042
:1001E00000081422411414141414004122140802AB
:1001F000015909063E415D594E7C1211127C7F491E
:100200004949363E414141227F4141413E7F494972
:1002100049417F090909013E414151737F0808089E
:100220007F00417F41002040413F017F081422416F
:100230007F404040407F021C027F7F0408107F3EC9
:100240004141413E7F090909063E4151215E7F0936
:10025000192946264949493203017F01033F40409D
:10026000403F1F2040201F3F4038403F6314081488
:100270006303047804036159494D43007F414141C0
:100280000204081020004141417F040201020440A1
:1002900040404040000307080020545478407F2825
:1002A0004444383844444428384444287F3854541B
:1002B000541800087E090218A4A49C787F0804043E
:1002C0007800447D40002040403D007F10284400DD
:1002D00000417F40007C047804787C08040478386E
:1002E00044444438FC1824241818242418FC7C089E
:1002F000040408485454542404043F44243C40401B
:10030000207C1C2040201C3C4030403C44281028CD
:10031000444C9090907C4464544C44000836410016
:100320000000770000004136080002010204023C90
:100330002623263C1EA1A161123A4040207A38545F
:1003400054555921555579412154547841215554DA
:10035000784020545579400C1E527212395555552B
:1003600059395454545939555454580000457C4116
:100370000002457D420001457C40F0292429F0F02F
:10038000282528F07C545545002054547C547C0A80
:10039000097F4932494949323248484832324A484D
:1003A00048303A4141217A3A42402078009DA0A04D
:1003B0007D39444444393D4040403D3C24FF2424A1
:1003C000487E4943662B2FFC2F2BFF0929F620C0BE
:1003D000887E090320545479410000447D4130480F
:1003E000484A32384040227A007A0A0A727D0D1952
:1003F000317D2629292F28262929292630484D40B4
:1004000020380808080808080808382F10C8ACBAAF
:100410002F102834FA00007B000008142A1422222E
:10042000142A14089500220095AA005500AAAA557E
:10043000AA55AA000000FF00101010FF00141414A9
:10044000FF001010FF00FF1010F010F0141414FC47
:10045000001414F700FF0000FF00FF1414F404FC64
:10046000141417101F10101F101F1414141F001045
:100470001010F0000000001F101010101F101010BE
:1004800010F010000000FF101010101010101010CD
:10049000FF10000000FF140000FF00FF00001F100D
:1004A000170000FC04F414141710171414F404F4C7
:1004B0000000FF00F714141414141414F700F714B8
:1004C0001414171410101F101F141414F414101007
:1004D000F010F000001F101F0000001F14000000AB
:1004E000FC140000F010F01010FF10FF141414FFA3
:1004F000141010101F00000000F010FFFFFFFFFF9E
:10050000F0F0F0F0F0FFFFFF0000000000FFFF0F31
:100510000F0F0F0F38444438447C2A2A3E147E02C1
:10052000020606027E027E02635549416338444456
:100530003C04407E201E2006027E020299A5E7A50B
:10054000991C2A492A1C4C7201724C304A4D4D307C
:100550003048784830BC625A463D3E494949007EA1
:100560000101017E2A2A2A2A2A44445F4444405138
:100570004A444040444A51400000FF0103E080FFEC
:10058000000008086B6B083612362436060F090F78
:1005900006000018180000001010003040FF010194
:1005A000001F01011E00191D1712003C3C3C3C00BD
:1005B00000000000F0F89C8E8783878E9CF8F00086
:1005C00000FEFF0303030303070EFCF80000FEFF19
:1005D0000303030303070EFCF80000FFFF00000005
:1005E00000000000FFFF0000FEFF8383838383C7BA
:1005F000EE7C380000F8FC0E07030303070EFCF83E
:1006000000003F7FE0C08080C0E07F3FFFFF01012E
:100610000101010101FFFF0000FFFF0C0C0C0C1C8D
:100620003E77E3C100007FFFC0C0C0C0C0E0703FA4
:100630001F00001F3F70E0C0C0C0E0703F1F0000FF
:100640007FFFC1C1C1C1C1E3773E1C00001F3F70E5
:10065000E0C0C0C0E0703F1F000000000001FFFFCD
:1006600001000000D5F08D14A1C881CFD9F1AF20D1
:1006700000080B000202020100090400000102024E
:1006800000000524001001052401010104240206D4
:10069000052406000107058103100040090401003C
:1006A000020A00000007050202400000070583025D
:1006B0004000000403090412010002EF020140415E
:1006C00023368000010102030141726475696E6F77
:1006D000204C4C430041726475696E6F204C656F0D
:1006E0006E6172646F00A70D11241FBECFEFDAE0B8
:1006F000DEBFCDBF11E0A0E0B1E0EEEFFBE102C054
:1007000005900D92A234B107D9F725E0A2E4B1E03B
:1007100001C01D92A23DB207E1F713E0C4E7D3E0A8
:1007200004C02197FE010E94F20DC337D107C9F71B
:100730000E94660A0C94FD0D0C940000CF92DF928B
:10074000EF92FF920F931F93CF93DF936C017A0187
:100750008B01C0E0D0E0CE15DF0589F0D8016D91A6
:100760008D01D601ED91FC910190F081E02DC60143
:100770000995892B11F47E0102C02196ECCFC701A7
:10078000DF91CF911F910F91FF90EF90DF90CF906D
:1007900008953FB7F8948091430190914401A0914E
:1007A0004501B091460126B5A89B05C02F3F19F021
:1007B0000196A11DB11D3FBFBA2FA92F982F8827E1
:1007C000820F911DA11DB11DBC01CD0142E0660F3C
:1007D000771F881F991F4A95D1F708952D9A08957C
:1007E0008FB12CB193B130E0209530952074332730
:1007F000A90123E0559547952A95E1F7292F30E087
:100800002095309520713327359527953595279577
:10081000242B8095807F822B089583B7817F83BFAF
:1008200083B7816083BF889583B78E7F83BF089528
:100830008EBD00000DB407FEFDCF08952F923F92AC
:100840004F925F926F927F928F929F92AF92BF92E0
:10085000CF92DF92EF92FF920F931F93CF93DF938C
:10086000CDB7DEB727970FB6F894DEBF0FBECDBF6A
:100870009B838A836A30A1F4DC015C962C915C979F
:1008800058968D919C915997B8E02B9F800D911DA2
:100890001124EA81FB81918F808F178A168AC1C04B
:1008A0006D3009F4BEC0AA81BB815C964C915C9707
:1008B0005B966C905B976E825A967C905A977F827B
:1008C0005896CD90DC90599756968D919C9157975C
:1008D00080389105C4F0AA81BB815C962C915C970D
:1008E000422F50E056968D919C915797B6E02B9FE2
:1008F000800D911D1124EA81FB81978B868B258DBC
:1009000021117AC08EC0F0E4CF16D10424F79C01E7
:1009100055E0459F200D311D112412161306DCF6FB
:10092000242E312C9601A8E04A9F200D311D112460
:100930001216130684F6B5E06B9FB0011124FB017B
:10094000EC54FF4F2F0150E0F201B490553009F400
:10095000B12C7601B8E09B2EB0FC02C08E8001C0A5
:100960008F8081100BC06E807F80671007C0B694A7
:100970009A94E20CF31C9110EFCF33C09C012983B1
:10098000622F681B641798F7B701E62FEE19E4177A
:1009900028F520383105F8F460347105E0F48B0156
:1009A000ECEAF0E0A0E16A2E7980609ED001A078A8
:1009B0001124A70D0770E00FF11DA490BD83AC8337
:1009C000A95ABE4F882019F0EC91AE2A03C0A0941A
:1009D000EC91AE22AC926F5F7F4FD7CF2F5F3F4F2E
:1009E000CECF5F5F820D931D92012F5F3F4F290194
:1009F000563009F0A9CF6FCF6AEF64039001659F6D
:100A0000300D112420583F4F2817390754F48A819C
:100A10009B81DC01ED91FC910190F081E02D6AE079
:100A2000099581E090E027960FB6F894DEBF0FBEDF
:100A3000CDBFDF91CF911F910F91FF90EF90DF908D
:100A4000CF90BF90AF909F908F907F906F905F906E
:100A50004F903F902F9008950895089580E090E082
:100A600008950E94F80D409150015091510120913C
:100A70004E0130914F0142175307B4F49091E800B2
:100A80009570E1F39091E80092FD19C08093F10018
:100A9000809150019091510101968F739927892B74
:100AA00019F48EEF8093E8008091500190915101EC
:100AB0000196909351018093500181E0089580E068
:100AC0000895615030F02091F100FC0120830196DF
:100AD000F8CF289884E68093550108958F929F92CD
:100AE000AF92BF92CF92DF92EF92FF926B017C01A7
:100AF0000E94C9034B015C01C114D104E104F1045B
:100B0000F1F00E94C903DC01CB0188199909AA09F7
:100B1000BB09883E9340A105B10570F321E0C21ADC
:100B2000D108E108F10888EE880E83E0981EA11C28
:100B3000B11CC114D104E104F10419F7DDCFFF9019
:100B4000EF90DF90CF90BF90AF909F908F900895DF
:100B5000BC0180E090E00C946E051F920F920FB6DE
:100B60000F9211242F933F938F939F93AF93BF9333
:100B70008091480190914901A0914A01B0914B01A7
:100B80003091420123E0230F2D3720F40196A11D5F
:100B9000B11D05C026E8230F0296A11DB11D2093AB
:100BA00042018093480190934901A0934A01B09378
:100BB0004B018091430190914401A0914501B09176
:100BC00046010196A11DB11D8093430190934401FC
:100BD000A0934501B0934601BF91AF919F918F9132
:100BE0003F912F910F900FBE0F901F901895FC0111
:100BF00080915601811103C08FEF9FEF08959FB739
:100C0000F89482E08093E9002091F20030E012161F
:100C1000130614F421E030E02115310559F028982D
:100C200084E6809355018091F10080838091F200E9
:100C3000882319F09FBFC90108958BE68093E800CF
:100C4000F9CF2FB7F89483E08093E9009091E80002
:100C5000892F807295FF04C09091F20080E4891B77
:100C60002FBF089580917A0581110DC082E0809395
:100C7000760584E0809377051092790510927805C7
:100C800081E080937A0586E795E00895CF93DF931E
:100C90001F92CDB7DEB76983DC01ED91FC91028034
:100CA000F381E02D41E050E0BE016F5F7F4F099579
:100CB0000F90DF91CF91089583E08093E9008091B8
:100CC000F200882319F08AE38093E80008950E94D7
:100CD000210690E00895CF93DF931F92CDB7DEB742
:100CE000FC018485958597FD05C02FEF3FEF358783
:100CF00024870BC0CE0101960E94F705019719F4D5
:100D0000898190E002C08FEF9FEF0F90DF91CF912C
:100D100008950F931F93CF93DF931F92CDB7DEB744
:100D20008C01FC018485958597FF0EC0CE0101964C
:100D30000E94F705019719F4298130E002C02FEFD6
:100D40003FEFF80135872487F801848595850F905A
:100D5000DF91CF911F910F910895FC0184859585B6
:100D600097FD0BC09FB7F89482E08093E9008091D3
:100D7000F2009FBF90E0019608959FB7F89482E03B
:100D80008093E9008091F2009FBF90E008958F92D8
:100D90009F92AF92BF92CF92DF92EF92FF920F930A
:100DA0001F93CF93DF935C016B017A018091140153
:100DB000882309F45BC080915601882309F456C04A
:100DC0008091540180FF05C08091E0008260809393
:100DD000E000E70110E00AEF83E0882E9AE3992E05
:100DE0002097D9F10E94210681110AC0015009F40F
:100DF0003DC061E070E080E090E00E946E05F0CFC1
:100E0000282F30E0C217D3070CF48C2F4FB7F8947B
:100E10008092E9009091E80095FF1DC0282F30E0F6
:100E2000C21BD30BF601982F915020F08191809333
:100E3000F100FACFC20ED31E112319F09092E800F0
:100E400009C08091E80085FD06C09092E80011E09D
:100E5000209709F010E04FBFC3CF1111C3CF5D98A9
:100E600084E6809375051E141F0444F081E090E031
:100E7000F5019383828380E090E001C0C701DF9198
:100E8000CF911F910F91FF90EF90DF90CF90BF9087
:100E9000AF909F908F900895DF92EF92FF920F9303
:100EA0001F93CF93DF93D82E8A017B01E40EF51EAA
:100EB000EB01CE15DF0571F0D7FE03C0FE01849172
:100EC00001C088810E94330521968111F2CF8FEFF6
:100ED0009FEF01C0C801DF91CF911F910F91FF904B
:100EE000EF90DF9008950F931F93CF93DF931F929E
:100EF000CDB7DEB782E0898342E450E061E776E077
:100F000080E80E944C070E943206DC0112960D9187
:100F10001C9113970115110569F0D801ED91FC9111
:100F20000280F381E02DBE016F5F7F4FC8010995FC
:100F300097FF07C089810F90DF91CF911F910F918B
:100F40000895F80100851185E5CF80E0E7E5F1E03F
:100F500081118FEF00248193819381938193039476
:100F6000D1F70895809157018EBDE8E5F1E08191B8
:100F70000DB407FEFDCF8EBD85E0E735F807B9F764
:100F80000DB407FEFDCF08951F920F920FB60F927A
:100F900011248F939F938091E1009091E100937FC2
:100FA0009093E10083FF0FC01092E90091E09093CD
:100FB000EB001092EC0092E39093ED00109256013A
:100FC00098E09093F00082FF20C093E09093E900B6
:100FD0009091F200992319F09AE39093E800909190
:100FE0007505992339F09091750591509093750589
:100FF000992389F190915501992339F090915501E8
:10100000915090935501992341F184FF10C0809134
:10101000E2008E7E81608093E2008091E1008F7E0D
:101020008093E100809154018E7E806111C080FF29
:1010300016C08091E2008E7E80618093E2008091F4
:10104000E1008E7E8093E100809154018E7E81606C
:101050008093540104C05D9ACDCF289AD6CF9F913A
:101060008F910F900FBE0F901F9018951F920F92A7
:101070000FB60F921124CF92DF92EF92FF920F934F
:101080001F932F933F934F935F936F937F938F9310
:101090009F93AF93BF93EF93FF93CF93DF93CDB71E
:1010A000DEB76C97DEBFCDBF1092E9008091E800FB
:1010B00083FFEDC168E0CE0145960E94610582EF95
:1010C0008093E8008D8987FF05C09091E80090FF2C
:1010D000FCCF03C09EEF9093E800982F907609F024
:1010E000C6C09E892F89188D91110CC0803829F4B3
:1010F000809153018093F10002C01092F100109290
:10110000F10048C1422F50E0512B913051F4811130
:1011100041C14130510509F03DC1809153018D7F9E
:101120000BC0933061F4811135C14130510509F094
:1011300031C1809153018260809353012BC195305E
:1011400041F48091E80080FFFCCF20682093E30009
:1011500021C1963009F05FC0EB8CFC8C1092E90045
:101160001092510110925001123091F510924F01DE
:1011700010924E010E94730799E0BE016F5F7F4F8E
:10118000DB01E92F1D92EA95E9F799831A8391E033
:101190009E8390EA98879AEF998720915001309129
:1011A0005101275F3F4F3C832B838D831092E900D1
:1011B0001092510110925001F0924F01E0924E01B5
:1011C00049E050E080E00E944C070E947307E2C0B3
:1011D000F0924F01E0924E010E943206DC0112961D
:1011E000ED90FC901397E114F10409F4C0C0D7010D
:1011F000ED91FC910480F581E02DBE016B5E7F4F87
:10120000C7010995009719F00CF0C4C0C7C0F701D9
:10121000E084F184E8CF973009F4C0C0983021F41D
:1012200081E08093F100B6C0993009F0B3C08370BB
:1012300009F0B4C0E6E1F1E081E021E036E390811D
:10124000992361F08093E9002093EB0091919093B2
:10125000EC003093ED008F5F873089F78EE7809345
:10126000EA001092EA008F898093560193C08B8D1B
:101270009C8D1092E90010925101109250019093B0
:101280004F0180934E01898D811156C08E899D89B1
:10129000913A59F4813209F081C047E050E06DE0A5
:1012A00071E080E00E944C0775C0913209F076C071
:1012B000833289F4888D90E0982F88272F89822B9C
:1012C000A0E0B0E08093090190930A01A0930B0184
:1012D000B0930C015FC0803269F48091E80082FF16
:1012E000FCCF67E08DE091E00E9461058BEF809379
:1012F000E80006C0823209F04DC08F898093140146
:1013000080915201882319F0EEEFFAE002C0E0E08C
:10131000F8E080910D0190910E01A0910F01B09124
:101320001001803B9440A105B10509F07BC080917C
:10133000140180FF93C076C00E943206DC01129631
:101340000D911C9113970115110541F1D801ED91F3
:10135000FC910190F081E02DBE016B5E7F4FC801D2
:101360000995811117C0F80100851185ECCF113066
:1013700009F44EC0133091F48F89882309F445C0D5
:10138000823081F440E860E185ED96E00E946A0DCC
:10139000882321F08EEF8093E80079C081E280936A
:1013A000EB0075C0813029F440E86BE089EC96E0F1
:1013B000EDCF833099F70E943206DC011296ED9052
:1013C000FC9013978E010F5F1F4F6801E114F10429
:1013D00079F0D701ED91FC910680F781E02DB801FD
:1013E000C7010995080F111DF701E084F184EECFC4
:1013F000D8011C92F60101900020E9F73197BF0156
:101400006C197D0940E0C601C1CF63EB76E002C0F4
:1014100067EB76E06115710509F2FB01449150E03C
:1014200080E840CF0FB6F894A8958091600088615D
:1014300080936000109260000FBEA895EE3F2AE0F6
:10144000F20739F08091FE0A9091FF0A9183808320
:10145000A1CF1092FF0A1092FE0A9CCFEE3F8AE0C5
:10146000F80731F0808191819093FF0A8093FE0A02
:1014700087E797E7918380839BE088E10FB6F89434
:10148000A895809360000FBE9093600083CF6C9608
:101490000FB6F894DEBF0FBECDBFDF91CF91FF91A5
:1014A000EF91BF91AF919F918F917F916F915F91DC
:1014B0004F913F912F911F910F91FF90EF90DF90EF
:1014C000CF900F900FBE0F901F901895789484B511
:1014D000826084BD84B5816084BD85B5826085BD30
:1014E00085B5816085BD80916E00816080936E00BE
:1014F00010928100809181008260809381008091B0
:101500008100816080938100809180008160809360
:101510008000809191008260809391008091910081
:101520008160809391008091900081608093900011
:101530008091C10084608093C1008091C10082606D
:101540008093C1008091C10081608093C10080912F
:10155000C30081608093C3008091C000826080934B
:10156000C0008091C20081608093C20080917A00A7
:10157000846080937A0080917A00826080937A0000
:1015800080917A00816080937A0080917A008068EF
:1015900080937A00109256011092530110925401D8
:1015A0008091D70081608093D70080EA8093D80033
:1015B00089B5806189BD89B5826089BD09B400FEA5
:1015C000FDCF61E070E080E090E00E946E058091C8
:1015D000D8008F7C80618093D8008091E000807F6C
:1015E0008093E0008091E1008E7E8093E1008DE0A9
:1015F0008093E200559A209AEEEFFFE7859194914F
:101600008B3F9C4D19F481E08093520181EC8093D3
:101610007C0085B1806F85B9249884B1866E84B9C9
:101620005E9A5F988AB1806D8AB9769A6E9881B316
:10163000806F81BB899880B38D7080BB80E58CBD45
:1016400081E08DBD85E090E00E94A8055F9A85E06D
:1016500090E00E94A8055E985C98C4E6D6E01C2F36
:10166000135FFE0184910E94180421961C13F9CF88
:101670005C9A81E88093640081E080936500C0E01B
:10168000D4E080E00E9418042197D9F70E94F0036B
:1016900087FF1FC05C9885EA0E9418045C9A2E9808
:1016A0002F982D98809164008062809364000E943E
:1016B0000D04FDCF2D980E94F0038478843871F0DA
:1016C0000E94F0038471843131F188EC90E00E9433
:1016D000A8050E94F00382FDEDCF3AC00E94EE0300
:1016E00088EC90E00E94A8052F9882E090E00E948C
:1016F000DC0D8F3F29F06FEF82E090E00E94E40D57
:1017000084EF91E00E94A8052F9A0E94F00384784C
:101710008438D9F3D5CF0E94EE0388EC90E00E9484
:10172000A8052E9882E090E00E94DC0D882329F025
:1017300060E082E090E00E94E40D84EF91E00E947E
:10174000A8052E9A0E94F00384718431D9F3BDCF8D
:101750000E94EE0382E090E00E94DC0D882331F0CD
:101760003E9A3F9A81E08093470104C0109247015E
:101770003E983F982E98CEEEDFEF08E010E00E94F2
:10178000F00386FF04C02E9A2F9A2D9A8BC0CC3F6F
:101790002FEFD20719F42E9A2F9805C0C831D10522
:1017A00011F42F9A2D980E94A507C03F4FEFD40740
:1017B00084F40E94B2078BE190E00E94A805C03F2C
:1017C0005FEFD50709F059C08AEF90E00E94A805A5
:1017D00054C09E01D7FF04C0222733272C1B3D0B8A
:1017E00027703327CE01D7FD079653E0959587954F
:1017F0005A95E1F7D7FF05C00197F801E21BF30BFB
:101800009F017C01F694FE2CEE24F794E79460E0AF
:1018100070E04801821A930AA70140585F4F5A01AD
:101820008F3F5FEF950744F40196685A7F4F75012B
:10183000603B710589F7BDCFD701A551BE4F40E090
:1018400050E08F3FEFEF9E0709F4D5C0FA01E60F95
:10185000F71FEC54FA4FE4916D01CA18DB08CE0C67
:10186000DF1CF0E02F01022E01C0440C0A94EAF7BD
:10187000F601708047284082BEC02196C931D1054B
:1018800009F07DCF8CEB92E00E94A8050E94EE0348
:10189000E0915B05F0915C050190F081E02D8BE516
:1018A00095E0099582E390E00E94A8050E94F0036C
:1018B0008111F8CF84E380934D018EE180934C0138
:1018C000C0E0D1E000E010E0FF24F3942FB7F894DB
:1018D0008091480190914901A0914A01B0914B013A
:1018E0002FBF40916705509168056091690570911F
:1018F0006A0520916B05222341F020916305821B2C
:1019000080936C0510926B056FC084179507A6072E
:10191000B70738F4481B423008F466C00E940D0433
:1019200063C0F0926B058093630590936405A09368
:101930006505B093660520916205820F911DA11D7A
:10194000B11D8093670590936805A0936905B093D6
:101950006A0580915E0590915F05019690935F0501
:1019600080935E050E94F00386FF05C080914D01C3
:10197000893608F45BC00E94F00385FF04C08091A3
:101980004D01811157C00E94F00387FF04C0809170
:101990004C01811153C00E94F00384FF05C0809167
:1019A0004C01893308F44EC00E94A50780914C0178
:1019B00090E020914D0130E030936E0520936D054D
:1019C0009093700580936F05FE0101900020E9F768
:1019D0003197AF014050514060E071E087E595E0FC
:1019E0000E949E030E94B2070115110509F46ECFF3
:1019F0000E9400006BCF2115310581F0FA01E60F3E
:101A0000F71FEC54FA4FE491F0E0082C02C0F59572
:101A1000E7950A94E2F7DC90ED29EC934F5F5F4F76
:101A200011964835510509F00CCFFECE8F5F80939B
:101A30004D01A1CF815080934D01A5CF815080935E
:101A40004C01A9CF8F5F80934C01AECF0F931F93B2
:101A5000CF93DF938C0181E090E00E94DC0D80FF4A
:101A600031C08AE090E00E94DC0D9FEF980F9E3F0E
:101A700048F522E330E0D80157963C932E935697D1
:101A800028E330E059963C932E935897CBE0D0E072
:101A9000D801ED91FC910190F081E02D682FC801F3
:101AA0000995CE010E94DC0D2196C131D10581F747
:101AB0000E94B20788EE93E0DF91CF911F910F91C2
:101AC0000C94A805DF91CF911F910F910895049771
:101AD0000C94260DCF92DF92EF92FF920F931F93FB
:101AE000CF93DF931F92CDB7DEB7182F062FE42ECA
:101AF000862F880F8E5F99830E94330583E00E94B2
:101B00003305F12EC12E9981D92E8C2D8F19801776
:101B100098F4F601E7FE02C0849101C080810E9422
:101B20003305182F80E00E9433058123FFEFCF1A81
:101B3000DF0A8111EACF01C081E00F90DF91CF91E0
:101B40001F910F91FF90EF90DF90CF900895E2E802
:101B5000F5E01382128288EE93E0A0E0B0E0848387
:101B60009583A683B78380E291E0918380838FEF92
:101B70009FEF95878487E7E5F5E01382128211864F
:101B8000128620E1238790878783108A118A128A20
:101B9000138A148A82E391E09183808380E491E048
:101BA00095838483178A168A118E108E81E0828F26
:101BB000138E848F158E0895F999FECF92BD81BD45
:101BC000F89A992780B50895262FF999FECF1FBA64
:101BD00092BD81BD20BD0FB6F894FA9AF99A0FBE56
:101BE00001960895EE0FFF1F0590F491E02D0994E2
:0E1BF00081E090E0F8940C94FD0DF894FFCF86
:101BFE004D6F7665206D652100FFFFFFFF00E10050
:101C0E00000000000000C180810000000000000004
:101C1E004606C70667065C06AD066B06890600001B
:101C2E0000001E049E032E052D05260DFCFF000050
:021C3E00670D30
:00000001FF
